{
  "contractName": "ResearchsContract",
  "abi": [
    {
      "anonymous": false,
      "inputs": [
        {
          "indexed": false,
          "internalType": "string",
          "name": "title",
          "type": "string"
        },
        {
          "indexed": false,
          "internalType": "string",
          "name": "abstractText",
          "type": "string"
        },
        {
          "indexed": false,
          "internalType": "string",
          "name": "content",
          "type": "string"
        },
        {
          "indexed": false,
          "internalType": "string",
          "name": "doi",
          "type": "string"
        },
        {
          "indexed": false,
          "internalType": "enum ResearchsContract.Status",
          "name": "status",
          "type": "uint8"
        },
        {
          "indexed": false,
          "internalType": "string",
          "name": "uploadedBy",
          "type": "string"
        },
        {
          "indexed": false,
          "internalType": "string",
          "name": "actionBy",
          "type": "string"
        },
        {
          "indexed": false,
          "internalType": "uint256",
          "name": "counter",
          "type": "uint256"
        }
      ],
      "name": "CreatedResearch",
      "type": "event"
    },
    {
      "anonymous": false,
      "inputs": [
        {
          "indexed": false,
          "internalType": "string",
          "name": "title",
          "type": "string"
        },
        {
          "indexed": false,
          "internalType": "enum ResearchsContract.Status",
          "name": "status",
          "type": "uint8"
        },
        {
          "indexed": false,
          "internalType": "string",
          "name": "actionBy",
          "type": "string"
        },
        {
          "indexed": false,
          "internalType": "uint256",
          "name": "counter",
          "type": "uint256"
        }
      ],
      "name": "changeStatus",
      "type": "event"
    },
    {
      "inputs": [
        {
          "internalType": "uint256",
          "name": "",
          "type": "uint256"
        }
      ],
      "name": "researchs",
      "outputs": [
        {
          "internalType": "string",
          "name": "title",
          "type": "string"
        },
        {
          "internalType": "string",
          "name": "abstractText",
          "type": "string"
        },
        {
          "internalType": "string",
          "name": "content",
          "type": "string"
        },
        {
          "internalType": "string",
          "name": "doi",
          "type": "string"
        },
        {
          "internalType": "enum ResearchsContract.Status",
          "name": "status",
          "type": "uint8"
        },
        {
          "internalType": "string",
          "name": "uploadedBy",
          "type": "string"
        },
        {
          "internalType": "string",
          "name": "actionBy",
          "type": "string"
        }
      ],
      "stateMutability": "view",
      "type": "function",
      "constant": true
    },
    {
      "inputs": [
        {
          "internalType": "string",
          "name": "_title",
          "type": "string"
        },
        {
          "internalType": "string",
          "name": "_abstractText",
          "type": "string"
        },
        {
          "internalType": "string",
          "name": "_content",
          "type": "string"
        },
        {
          "internalType": "string",
          "name": "_doi",
          "type": "string"
        },
        {
          "internalType": "string",
          "name": "_uploadedBy",
          "type": "string"
        }
      ],
      "name": "uploadResearch",
      "outputs": [],
      "stateMutability": "nonpayable",
      "type": "function"
    },
    {
      "inputs": [
        {
          "internalType": "uint256",
          "name": "_counter",
          "type": "uint256"
        },
        {
          "internalType": "string",
          "name": "_action",
          "type": "string"
        }
      ],
      "name": "approveResearch",
      "outputs": [],
      "stateMutability": "nonpayable",
      "type": "function"
    },
    {
      "inputs": [
        {
          "internalType": "uint256",
          "name": "_counter",
          "type": "uint256"
        },
        {
          "internalType": "string",
          "name": "_action",
          "type": "string"
        }
      ],
      "name": "rejectResearch",
      "outputs": [],
      "stateMutability": "nonpayable",
      "type": "function"
    },
    {
      "inputs": [
        {
          "internalType": "uint256",
          "name": "_counter",
          "type": "uint256"
        }
      ],
      "name": "getResearch",
      "outputs": [
        {
          "components": [
            {
              "internalType": "string",
              "name": "title",
              "type": "string"
            },
            {
              "internalType": "string",
              "name": "abstractText",
              "type": "string"
            },
            {
              "internalType": "string",
              "name": "content",
              "type": "string"
            },
            {
              "internalType": "string",
              "name": "doi",
              "type": "string"
            },
            {
              "internalType": "enum ResearchsContract.Status",
              "name": "status",
              "type": "uint8"
            },
            {
              "internalType": "string",
              "name": "uploadedBy",
              "type": "string"
            },
            {
              "internalType": "string",
              "name": "actionBy",
              "type": "string"
            }
          ],
          "internalType": "struct ResearchsContract.Research",
          "name": "",
          "type": "tuple"
        }
      ],
      "stateMutability": "view",
      "type": "function",
      "constant": true
    }
  ],
  "bytecode": "0x608060405234156100105760006000fd5b6001600155610ece80610026608039806080f350fe60406080815260043610151561013f576000803560e01c6304c7814a8114610052576308cd35a6811461008057635b78e86681146100a85763997a5a8f81146100d05763e3e02ba7811461010e5761013c565b341561005c578182fd5b610065366101c5565b6100728183858789610c3c565b5050505050818351f361013c565b341561008a578182fd5b610093366102bc565b61009d8183610950565b5050818351f361013c565b34156100b2578182fd5b6100bb366102bc565b6100c58183610b2f565b5050818351f361013c565b34156100da578182fd5b6100eb6100e63661029c565b610d5d565b8951806100fe838587898b8d8f89610412565b0381f3505050505050505061013c565b3415610118578182fd5b6101296101243661029c565b610a5d565b83518061013683836104a4565b0381f350505b50505b5060006000fd610ecd565b600082601f830112151561015e5760006000fd5b813567ffffffffffffffff81111561017957610178610e25565b5b6040516101906020601f19601f850116018261091f565b8181528460208386010111156101a65760006000fd5b8160208501602083013760006020838301015280925050505b92915050565b6000600060006000600060a0600319870112156101e25760006000fd5b6004803567ffffffffffffffff808211156101fd5760006000fd5b6102098983850161014a565b975060243591508082111561021e5760006000fd5b61022a8983850161014a565b965060443591508082111561023f5760006000fd5b61024b8983850161014a565b95506064359150808211156102605760006000fd5b61026c8983850161014a565b94506084359150808211156102815760006000fd5b5061028e8882840161014a565b925050505b91939590929450565b60006020600319830112156102b15760006000fd5b60043590505b919050565b600060006040600319840112156102d35760006000fd5b600435915060243567ffffffffffffffff8111156102f15760006000fd5b6102fe848260040161014a565b9150505b915091565b60018152505b565b60028152505b565b60038110151561033757634e487b7160e01b600052602160045260246000fd5b80825250505b565b6000815180845260005b8181101561036c576020808286010151818388010152505b602081019050610349565b8181111561037e576000602083870101525b506020601f19601f8301168501019150505b92915050565b6080815260006103a9608083018461033f565b6001602084015282810360408401526103c2818661033f565b9150508460608301525b949350505050565b6080815260006103e7608083018461033f565b600260208401528281036040840152610400818661033f565b9150508460608301525b949350505050565b60e08152600061042560e083018461033f565b8281036020840152610437818661033f565b9050828103604084015261044b818761033f565b9050828103606084015261045f818861033f565b905061046e6080840189610317565b82810360a0840152610480818a61033f565b905082810360c0840152610494818b61033f565b9150505b98975050505050505050565b602081526000825160e060208401526104c161010084018261033f565b90506020840151601f19808584030160408601526104df838361033f565b925060408601519150808584030160608601526104fc838361033f565b92506060860151915080858403016080860152610519838361033f565b92506080860151915061052f60a0860183610317565b60a08601519150808584030160c086015261054a838361033f565b925060c08601519150808584030160e086015250610568828261033f565b925050505b92915050565b80600052506000602060002090505b90565b601f8211156105d757600081815260208120601f850160051c810160208610156105ad578190505b601f850160051c820191508090505b818110156105d3578281555b6001810190506105bc565b5050505b5050505b565b60006040519050600082546105f181610889565b80845260018083166000811461060e57600181146106235761065b565b60ff198416602087015260408601945061065b565b8660005260208060002060005b8581101561065057815483828b01015284820191505b8281019050610630565b82818a010197505050505b5050505061066b8282038361091f565b505b919050565b815167ffffffffffffffff81111561068d5761068c610e25565b5b6106a18161069b8454610889565b84610585565b60006020809150601f8311600181146106db57600084156106c3578387015190505b8460011b6000198660031b1c1982161786555061073b565b601f1984166106e986610573565b60005b828110156107105785890151825560018201915084860195505b84810190506106ec565b508582101561072f578488015160001960f88860031b161c1981168255505b505060018460011b0185555b5050505050505b565b8151805167ffffffffffffffff81111561076157610760610e25565b5b6107758161076f8554610889565b85610585565b60006020809150601f8311600181146107af5760008415610797578386015190505b8460011b6000198660031b1c1982161787555061080f565b601f1984166107bd87610573565b60005b828110156107e45785880151825560018201915084860195505b84810190506107c0565b5085821015610803578487015160001960f88860031b161c1981168255505b505060018460011b0186555b506108208187015160018701610672565b50505050610835604083015160028301610672565b610846606083015160038301610672565b608082015161085481610e81565b6108618160048401610e3d565b5061087360a083015160058301610672565b61088460c083015160068301610672565b50505b565b60008160011c9050600182168015156108a357607f821691505b602082108114156108c457634e487b7160e01b600052602260045260246000fd5b505b919050565b60e0810181811067ffffffffffffffff821117156108ec576108eb610e25565b5b8060405250505b565b6020810181811067ffffffffffffffff8211171561091657610915610e25565b5b8060405250505b565b601f19601f830116810181811067ffffffffffffffff8211171561094657610945610e25565b5b806040525050505b565b806000526000602052604060002060405161096a816108cb565b610973826105dd565b8152610981600183016105dd565b6020820152610992600283016105dd565b60408201526109a3600383016105dd565b606082015260ff600483015416608082016109be8282610ea5565b6109ca600585016105dd565b60a08401526109db600685016105dd565b935060c0830191508382526109ef81610307565b5084815250610a0881610a03600154610e0e565b610744565b80519150506001546040517f640cda97a98f3bf74fb996e645a464c638f3dcf0ca40bcfe192818ac00a871cd81610a4184888786610396565b0382a150610a56610a5182610de0565b610e71565b505050505b565b6000604051610a6b816108cb565b60608082528060208301528060408301528081830152600060808301528060a08301528060c083015283600052600060205260406000209150604051610ab0816108cb565b610ab9836105dd565b8152610ac7600184016105dd565b6020820152610ad8600284016105dd565b6040820152610ae9600384016105dd565b82820152610b0160ff60048501541660808301610ea5565b610b0d600584016105dd565b60a0820152610b1e600684016105dd565b60c08201528093505050505b919050565b8060005260006020526040600020604051610b49816108cb565b610b52826105dd565b8152610b60600183016105dd565b6020820152610b71600283016105dd565b6040820152610b82600383016105dd565b606082015260ff60048301541660808201610b9d8282610ea5565b610ba9600585016105dd565b60a0840152610bba600685016105dd565b935060c083019150838252610bce8161030f565b5084815250610be781610be2600154610e0e565b610744565b80519150506001546040517f640cda97a98f3bf74fb996e645a464c638f3dcf0ca40bcfe192818ac00a871cd81610c20848887866103d4565b0382a150610c35610c3082610de0565b610e71565b505050505b565b60408051610c49816108cb565b828152836020820152848282015285606082015260008060808301528760a08301528251610c76816108f5565b8181528060c084015250600154815280602052610c9582848320610744565b60015491508251610100808252610cae8183018761033f565b90508181036020830152610cc2818861033f565b905081810385830152610cd5818961033f565b9450508084036060820152610cea848961033f565b935081608082015280840360a0820152610d04848a61033f565b93508084038060c08301528285528360e08301527f8b584a2fc71be2db15135ae985b6748e7b2e7767a03832ac7e24fc50822fcd326020820183a1505050610d53610d4e82610de0565b610e79565b505050505050505b565b8060005250600060205260006000600060006000600060006040600020610d83816105dd565b9750610d91600182016105dd565b9650610d9f600282016105dd565b9550610dad600382016105dd565b945060ff6004820154169350610dc5600582016105dd565b9250610dd3600682016105dd565b9150505b90919293949596565b6000600019821415610e0257634e487b7160e01b600052601160045260246000fd5b6001820190505b919050565b806000525060006020526000604060002090505b90565b634e487b7160e01b600052604160045260246000fd5b565b600382101515610e5d57634e487b7160e01b600052602160045260246000fd5b60ff1981541660ff8316811782555050505b565b80600155505b565b80600155505b565b600381101515610ea157634e487b7160e01b600052602160045260246000fd5b505b565b600382101515610ec557634e487b7160e01b600052602160045260246000fd5b81815250505b565b",
  "immutableReferences": {},
  "source": "// SPDX-License-Identifier: MIT\r\npragma solidity ^0.8.5;\r\n\r\ncontract ResearchsContract {\r\n\r\n    enum Status { PENDING, APPROVED, REJECTED }\r\n\r\n    event CreatedResearch (\r\n        string title,\r\n        string abstractText,\r\n        string content,\r\n        string doi,\r\n        Status status,\r\n        string uploadedBy,\r\n        string actionBy,\r\n        uint counter\r\n    );\r\n\r\n    event changeStatus (\r\n        string title,\r\n        Status status,\r\n        string actionBy,\r\n        uint counter\r\n    );\r\n\r\n    struct Research {\r\n        string title;\r\n        string abstractText;\r\n        string content;\r\n        string doi;\r\n        Status status;\r\n        string uploadedBy;\r\n        string actionBy;\r\n    }\r\n\r\n    mapping(uint => Research) public researchs;\r\n    uint researchsCount = 1;\r\n\r\n    function uploadResearch(string memory _title, string memory _abstractText, string memory _content, string memory _doi, string memory _uploadedBy) public {\r\n        researchs[researchsCount] = Research(_title, _abstractText, _content, _doi, Status.PENDING, _uploadedBy, \"\");\r\n        emit CreatedResearch(_title, _abstractText, _content, _doi, Status.PENDING, _uploadedBy, \"\", researchsCount);\r\n        researchsCount++;\r\n    }\r\n\r\n    function approveResearch(uint _counter, string memory _action) public {\r\n        Research memory research = researchs[_counter];\r\n        research.status = Status.APPROVED;\r\n        research.actionBy = _action;\r\n        researchs[researchsCount] = research;\r\n        emit changeStatus(research.title, Status.APPROVED, _action, researchsCount);\r\n        researchsCount++;\r\n    }\r\n\r\n    function rejectResearch(uint _counter, string memory _action) public {\r\n        Research memory research = researchs[_counter];\r\n        research.status = Status.REJECTED;\r\n        research.actionBy = _action;\r\n        researchs[researchsCount] = research;\r\n        emit changeStatus(research.title, Status.REJECTED, _action, researchsCount);\r\n        researchsCount++;\r\n    }\r\n\r\n    function getResearch(uint _counter) public view returns (Research memory) {\r\n        return researchs[_counter];\r\n    }\r\n\r\n}",
  "sourcePath": "C:\\Users\\gonza\\Documents\\arquitectura emergentes\\papervault-api\\src\\researchsContracts\\contracts\\ResearchsContract.sol",
  "compiler": {
    "name": "solc",
    "version": "0.8.5+commit.a4f2e591.Emscripten.clang"
  },
  "schemaVersion": "3.4.16",
  "updatedAt": "2024-06-20T16:41:45.542Z",
  "networkType": "ethereum",
  "devdoc": {
    "kind": "dev",
    "methods": {},
    "version": 1
  },
  "userdoc": {
    "kind": "user",
    "methods": {},
    "version": 1
  }
}